{
	"data": {
		"bytecode": {
			"linkReferences": {},
			"object": "608060405234801561000f575f80fd5b506110c48061001d5f395ff3fe608060405234801561000f575f80fd5b5060043610610060575f3560e01c806304710b661461006457806333b4097b14610080578063573bfc3a146100b2578063ac2f0074146100d0578063c9d27afe14610101578063e09959161461011d575b5f80fd5b61007e600480360381019061007991906108d0565b61013b565b005b61009a60048036038101906100959190610979565b610183565b6040516100a9939291906109b3565b60405180910390f35b6100ba610231565b6040516100c79190610b93565b60405180910390f35b6100ea60048036038101906100e59190610979565b610451565b6040516100f8929190610bfb565b60405180910390f35b61011b60048036038101906101169190610c65565b61058b565b005b610125610752565b6040516101329190610ca3565b60405180910390f35b5f8060018160018154018082558091505003905f5260205f209060040201905082815f01908161016b9190610eb6565b508181600101908161017d9190610eb6565b50505050565b5f805f805f858154811061019a57610199610f85565b5b905f5260205f20906004020190505f805f5b836002018054905081101561021d578360020181815481106101d1576101d0610f85565b5b905f5260205f20015f0160149054906101000a900460ff16156102015782806101f990610fdf565b935050610210565b818061020c90610fdf565b9250505b80806001019150506101ac565b508181889550955095505050509193909250565b60605f808054905067ffffffffffffffff811115610252576102516107ac565b5b60405190808252806020026020018201604052801561028b57816020015b61027861075d565b8152602001906001900390816102705790505b5090505f5b5f80549050811015610449575f806102a783610183565b509150915060405180608001604052805f85815481106102ca576102c9610f85565b5b905f5260205f2090600402015f0180546102e390610ce9565b80601f016020809104026020016040519081016040528092919081815260200182805461030f90610ce9565b801561035a5780601f106103315761010080835404028352916020019161035a565b820191905f5260205f20905b81548152906001019060200180831161033d57829003601f168201915b505050505081526020018381526020018281526020015f858154811061038357610382610f85565b5b905f5260205f209060040201600101805461039d90610ce9565b80601f01602080910402602001604051908101604052809291908181526020018280546103c990610ce9565b80156104145780601f106103eb57610100808354040283529160200191610414565b820191905f5260205f20905b8154815290600101906020018083116103f757829003601f168201915b505050505081525084848151811061042f5761042e610f85565b5b602002602001018190525050508080600101915050610290565b508091505090565b5f818154811061045f575f80fd5b905f5260205f2090600402015f91509050805f01805461047e90610ce9565b80601f01602080910402602001604051908101604052809291908181526020018280546104aa90610ce9565b80156104f55780601f106104cc576101008083540402835291602001916104f5565b820191905f5260205f20905b8154815290600101906020018083116104d857829003601f168201915b50505050509080600101805461050a90610ce9565b80601f016020809104026020016040519081016040528092919081815260200182805461053690610ce9565b80156105815780601f1061055857610100808354040283529160200191610581565b820191905f5260205f20905b81548152906001019060200180831161056457829003601f168201915b5050505050905082565b5f80838154811061059f5761059e610f85565b5b905f5260205f2090600402019050806003015f3373ffffffffffffffffffffffffffffffffffffffff1673ffffffffffffffffffffffffffffffffffffffff1681526020019081526020015f205f9054906101000a900460ff1615610639576040517f08c379a000000000000000000000000000000000000000000000000000000000815260040161063090611070565b60405180910390fd5b5f60405180604001604052803373ffffffffffffffffffffffffffffffffffffffff16815260200184151581525090508160020181908060018154018082558091505060019003905f5260205f20015f909190919091505f820151815f015f6101000a81548173ffffffffffffffffffffffffffffffffffffffff021916908373ffffffffffffffffffffffffffffffffffffffff1602179055506020820151815f0160146101000a81548160ff02191690831515021790555050506001826003015f3373ffffffffffffffffffffffffffffffffffffffff1673ffffffffffffffffffffffffffffffffffffffff1681526020019081526020015f205f6101000a81548160ff02191690831515021790555050505050565b5f8080549050905090565b6040518060800160405280606081526020015f81526020015f8152602001606081525090565b5f604051905090565b5f80fd5b5f80fd5b5f80fd5b5f80fd5b5f601f19601f8301169050919050565b7f4e487b71000000000000000000000000000000000000000000000000000000005f52604160045260245ffd5b6107e28261079c565b810181811067ffffffffffffffff82111715610801576108006107ac565b5b80604052505050565b5f610813610783565b905061081f82826107d9565b919050565b5f67ffffffffffffffff82111561083e5761083d6107ac565b5b6108478261079c565b9050602081019050919050565b828183375f83830152505050565b5f61087461086f84610824565b61080a565b9050828152602081018484840111156108905761088f610798565b5b61089b848285610854565b509392505050565b5f82601f8301126108b7576108b6610794565b5b81356108c7848260208601610862565b91505092915050565b5f80604083850312156108e6576108e561078c565b5b5f83013567ffffffffffffffff81111561090357610902610790565b5b61090f858286016108a3565b925050602083013567ffffffffffffffff8111156109305761092f610790565b5b61093c858286016108a3565b9150509250929050565b5f819050919050565b61095881610946565b8114610962575f80fd5b50565b5f813590506109738161094f565b92915050565b5f6020828403121561098e5761098d61078c565b5b5f61099b84828501610965565b91505092915050565b6109ad81610946565b82525050565b5f6060820190506109c65f8301866109a4565b6109d360208301856109a4565b6109e060408301846109a4565b949350505050565b5f81519050919050565b5f82825260208201905092915050565b5f819050602082019050919050565b5f81519050919050565b5f82825260208201905092915050565b5f5b83811015610a48578082015181840152602081019050610a2d565b5f8484015250505050565b5f610a5d82610a11565b610a678185610a1b565b9350610a77818560208601610a2b565b610a808161079c565b840191505092915050565b610a9481610946565b82525050565b5f608083015f8301518482035f860152610ab48282610a53565b9150506020830151610ac96020860182610a8b565b506040830151610adc6040860182610a8b565b5060608301518482036060860152610af48282610a53565b9150508091505092915050565b5f610b0c8383610a9a565b905092915050565b5f602082019050919050565b5f610b2a826109e8565b610b3481856109f2565b935083602082028501610b4685610a02565b805f5b85811015610b815784840389528151610b628582610b01565b9450610b6d83610b14565b925060208a01995050600181019050610b49565b50829750879550505050505092915050565b5f6020820190508181035f830152610bab8184610b20565b905092915050565b5f82825260208201905092915050565b5f610bcd82610a11565b610bd78185610bb3565b9350610be7818560208601610a2b565b610bf08161079c565b840191505092915050565b5f6040820190508181035f830152610c138185610bc3565b90508181036020830152610c278184610bc3565b90509392505050565b5f8115159050919050565b610c4481610c30565b8114610c4e575f80fd5b50565b5f81359050610c5f81610c3b565b92915050565b5f8060408385031215610c7b57610c7a61078c565b5b5f610c8885828601610965565b9250506020610c9985828601610c51565b9150509250929050565b5f602082019050610cb65f8301846109a4565b92915050565b7f4e487b71000000000000000000000000000000000000000000000000000000005f52602260045260245ffd5b5f6002820490506001821680610d0057607f821691505b602082108103610d1357610d12610cbc565b5b50919050565b5f819050815f5260205f209050919050565b5f6020601f8301049050919050565b5f82821b905092915050565b5f60088302610d757fffffffffffffffffffffffffffffffffffffffffffffffffffffffffffffffff82610d3a565b610d7f8683610d3a565b95508019841693508086168417925050509392505050565b5f819050919050565b5f610dba610db5610db084610946565b610d97565b610946565b9050919050565b5f819050919050565b610dd383610da0565b610de7610ddf82610dc1565b848454610d46565b825550505050565b5f90565b610dfb610def565b610e06818484610dca565b505050565b5b81811015610e2957610e1e5f82610df3565b600181019050610e0c565b5050565b601f821115610e6e57610e3f81610d19565b610e4884610d2b565b81016020851015610e57578190505b610e6b610e6385610d2b565b830182610e0b565b50505b505050565b5f82821c905092915050565b5f610e8e5f1984600802610e73565b1980831691505092915050565b5f610ea68383610e7f565b9150826002028217905092915050565b610ebf82610a11565b67ffffffffffffffff811115610ed857610ed76107ac565b5b610ee28254610ce9565b610eed828285610e2d565b5f60209050601f831160018114610f1e575f8415610f0c578287015190505b610f168582610e9b565b865550610f7d565b601f198416610f2c86610d19565b5f5b82811015610f5357848901518255600182019150602085019450602081019050610f2e565b86831015610f705784890151610f6c601f891682610e7f565b8355505b6001600288020188555050505b505050505050565b7f4e487b71000000000000000000000000000000000000000000000000000000005f52603260045260245ffd5b7f4e487b71000000000000000000000000000000000000000000000000000000005f52601160045260245ffd5b5f610fe982610946565b91507fffffffffffffffffffffffffffffffffffffffffffffffffffffffffffffffff820361101b5761101a610fb2565b5b600182019050919050565b7f596f75206861766520616c726561647920766f7465642e0000000000000000005f82015250565b5f61105a601783610bb3565b915061106582611026565b602082019050919050565b5f6020820190508181035f8301526110878161104e565b905091905056fea2646970667358221220fd22afb126a52edf539678ae71dbbf1250113c975364cf30ae174b24dfc836d864736f6c63430008180033",
			"opcodes": "PUSH1 0x80 PUSH1 0x40 MSTORE CALLVALUE DUP1 ISZERO PUSH2 0xF JUMPI PUSH0 DUP1 REVERT JUMPDEST POP PUSH2 0x10C4 DUP1 PUSH2 0x1D PUSH0 CODECOPY PUSH0 RETURN INVALID PUSH1 0x80 PUSH1 0x40 MSTORE CALLVALUE DUP1 ISZERO PUSH2 0xF JUMPI PUSH0 DUP1 REVERT JUMPDEST POP PUSH1 0x4 CALLDATASIZE LT PUSH2 0x60 JUMPI PUSH0 CALLDATALOAD PUSH1 0xE0 SHR DUP1 PUSH4 0x4710B66 EQ PUSH2 0x64 JUMPI DUP1 PUSH4 0x33B4097B EQ PUSH2 0x80 JUMPI DUP1 PUSH4 0x573BFC3A EQ PUSH2 0xB2 JUMPI DUP1 PUSH4 0xAC2F0074 EQ PUSH2 0xD0 JUMPI DUP1 PUSH4 0xC9D27AFE EQ PUSH2 0x101 JUMPI DUP1 PUSH4 0xE0995916 EQ PUSH2 0x11D JUMPI JUMPDEST PUSH0 DUP1 REVERT JUMPDEST PUSH2 0x7E PUSH1 0x4 DUP1 CALLDATASIZE SUB DUP2 ADD SWAP1 PUSH2 0x79 SWAP2 SWAP1 PUSH2 0x8D0 JUMP JUMPDEST PUSH2 0x13B JUMP JUMPDEST STOP JUMPDEST PUSH2 0x9A PUSH1 0x4 DUP1 CALLDATASIZE SUB DUP2 ADD SWAP1 PUSH2 0x95 SWAP2 SWAP1 PUSH2 0x979 JUMP JUMPDEST PUSH2 0x183 JUMP JUMPDEST PUSH1 0x40 MLOAD PUSH2 0xA9 SWAP4 SWAP3 SWAP2 SWAP1 PUSH2 0x9B3 JUMP JUMPDEST PUSH1 0x40 MLOAD DUP1 SWAP2 SUB SWAP1 RETURN JUMPDEST PUSH2 0xBA PUSH2 0x231 JUMP JUMPDEST PUSH1 0x40 MLOAD PUSH2 0xC7 SWAP2 SWAP1 PUSH2 0xB93 JUMP JUMPDEST PUSH1 0x40 MLOAD DUP1 SWAP2 SUB SWAP1 RETURN JUMPDEST PUSH2 0xEA PUSH1 0x4 DUP1 CALLDATASIZE SUB DUP2 ADD SWAP1 PUSH2 0xE5 SWAP2 SWAP1 PUSH2 0x979 JUMP JUMPDEST PUSH2 0x451 JUMP JUMPDEST PUSH1 0x40 MLOAD PUSH2 0xF8 SWAP3 SWAP2 SWAP1 PUSH2 0xBFB JUMP JUMPDEST PUSH1 0x40 MLOAD DUP1 SWAP2 SUB SWAP1 RETURN JUMPDEST PUSH2 0x11B PUSH1 0x4 DUP1 CALLDATASIZE SUB DUP2 ADD SWAP1 PUSH2 0x116 SWAP2 SWAP1 PUSH2 0xC65 JUMP JUMPDEST PUSH2 0x58B JUMP JUMPDEST STOP JUMPDEST PUSH2 0x125 PUSH2 0x752 JUMP JUMPDEST PUSH1 0x40 MLOAD PUSH2 0x132 SWAP2 SWAP1 PUSH2 0xCA3 JUMP JUMPDEST PUSH1 0x40 MLOAD DUP1 SWAP2 SUB SWAP1 RETURN JUMPDEST PUSH0 DUP1 PUSH1 0x1 DUP2 PUSH1 0x1 DUP2 SLOAD ADD DUP1 DUP3 SSTORE DUP1 SWAP2 POP POP SUB SWAP1 PUSH0 MSTORE PUSH1 0x20 PUSH0 KECCAK256 SWAP1 PUSH1 0x4 MUL ADD SWAP1 POP DUP3 DUP2 PUSH0 ADD SWAP1 DUP2 PUSH2 0x16B SWAP2 SWAP1 PUSH2 0xEB6 JUMP JUMPDEST POP DUP2 DUP2 PUSH1 0x1 ADD SWAP1 DUP2 PUSH2 0x17D SWAP2 SWAP1 PUSH2 0xEB6 JUMP JUMPDEST POP POP POP POP JUMP JUMPDEST PUSH0 DUP1 PUSH0 DUP1 PUSH0 DUP6 DUP2 SLOAD DUP2 LT PUSH2 0x19A JUMPI PUSH2 0x199 PUSH2 0xF85 JUMP JUMPDEST JUMPDEST SWAP1 PUSH0 MSTORE PUSH1 0x20 PUSH0 KECCAK256 SWAP1 PUSH1 0x4 MUL ADD SWAP1 POP PUSH0 DUP1 PUSH0 JUMPDEST DUP4 PUSH1 0x2 ADD DUP1 SLOAD SWAP1 POP DUP2 LT ISZERO PUSH2 0x21D JUMPI DUP4 PUSH1 0x2 ADD DUP2 DUP2 SLOAD DUP2 LT PUSH2 0x1D1 JUMPI PUSH2 0x1D0 PUSH2 0xF85 JUMP JUMPDEST JUMPDEST SWAP1 PUSH0 MSTORE PUSH1 0x20 PUSH0 KECCAK256 ADD PUSH0 ADD PUSH1 0x14 SWAP1 SLOAD SWAP1 PUSH2 0x100 EXP SWAP1 DIV PUSH1 0xFF AND ISZERO PUSH2 0x201 JUMPI DUP3 DUP1 PUSH2 0x1F9 SWAP1 PUSH2 0xFDF JUMP JUMPDEST SWAP4 POP POP PUSH2 0x210 JUMP JUMPDEST DUP2 DUP1 PUSH2 0x20C SWAP1 PUSH2 0xFDF JUMP JUMPDEST SWAP3 POP POP JUMPDEST DUP1 DUP1 PUSH1 0x1 ADD SWAP2 POP POP PUSH2 0x1AC JUMP JUMPDEST POP DUP2 DUP2 DUP9 SWAP6 POP SWAP6 POP SWAP6 POP POP POP POP SWAP2 SWAP4 SWAP1 SWAP3 POP JUMP JUMPDEST PUSH1 0x60 PUSH0 DUP1 DUP1 SLOAD SWAP1 POP PUSH8 0xFFFFFFFFFFFFFFFF DUP2 GT ISZERO PUSH2 0x252 JUMPI PUSH2 0x251 PUSH2 0x7AC JUMP JUMPDEST JUMPDEST PUSH1 0x40 MLOAD SWAP1 DUP1 DUP3 MSTORE DUP1 PUSH1 0x20 MUL PUSH1 0x20 ADD DUP3 ADD PUSH1 0x40 MSTORE DUP1 ISZERO PUSH2 0x28B JUMPI DUP2 PUSH1 0x20 ADD JUMPDEST PUSH2 0x278 PUSH2 0x75D JUMP JUMPDEST DUP2 MSTORE PUSH1 0x20 ADD SWAP1 PUSH1 0x1 SWAP1 SUB SWAP1 DUP2 PUSH2 0x270 JUMPI SWAP1 POP JUMPDEST POP SWAP1 POP PUSH0 JUMPDEST PUSH0 DUP1 SLOAD SWAP1 POP DUP2 LT ISZERO PUSH2 0x449 JUMPI PUSH0 DUP1 PUSH2 0x2A7 DUP4 PUSH2 0x183 JUMP JUMPDEST POP SWAP2 POP SWAP2 POP PUSH1 0x40 MLOAD DUP1 PUSH1 0x80 ADD PUSH1 0x40 MSTORE DUP1 PUSH0 DUP6 DUP2 SLOAD DUP2 LT PUSH2 0x2CA JUMPI PUSH2 0x2C9 PUSH2 0xF85 JUMP JUMPDEST JUMPDEST SWAP1 PUSH0 MSTORE PUSH1 0x20 PUSH0 KECCAK256 SWAP1 PUSH1 0x4 MUL ADD PUSH0 ADD DUP1 SLOAD PUSH2 0x2E3 SWAP1 PUSH2 0xCE9 JUMP JUMPDEST DUP1 PUSH1 0x1F ADD PUSH1 0x20 DUP1 SWAP2 DIV MUL PUSH1 0x20 ADD PUSH1 0x40 MLOAD SWAP1 DUP2 ADD PUSH1 0x40 MSTORE DUP1 SWAP3 SWAP2 SWAP1 DUP2 DUP2 MSTORE PUSH1 0x20 ADD DUP3 DUP1 SLOAD PUSH2 0x30F SWAP1 PUSH2 0xCE9 JUMP JUMPDEST DUP1 ISZERO PUSH2 0x35A JUMPI DUP1 PUSH1 0x1F LT PUSH2 0x331 JUMPI PUSH2 0x100 DUP1 DUP4 SLOAD DIV MUL DUP4 MSTORE SWAP2 PUSH1 0x20 ADD SWAP2 PUSH2 0x35A JUMP JUMPDEST DUP3 ADD SWAP2 SWAP1 PUSH0 MSTORE PUSH1 0x20 PUSH0 KECCAK256 SWAP1 JUMPDEST DUP2 SLOAD DUP2 MSTORE SWAP1 PUSH1 0x1 ADD SWAP1 PUSH1 0x20 ADD DUP1 DUP4 GT PUSH2 0x33D JUMPI DUP3 SWAP1 SUB PUSH1 0x1F AND DUP3 ADD SWAP2 JUMPDEST POP POP POP POP POP DUP2 MSTORE PUSH1 0x20 ADD DUP4 DUP2 MSTORE PUSH1 0x20 ADD DUP3 DUP2 MSTORE PUSH1 0x20 ADD PUSH0 DUP6 DUP2 SLOAD DUP2 LT PUSH2 0x383 JUMPI PUSH2 0x382 PUSH2 0xF85 JUMP JUMPDEST JUMPDEST SWAP1 PUSH0 MSTORE PUSH1 0x20 PUSH0 KECCAK256 SWAP1 PUSH1 0x4 MUL ADD PUSH1 0x1 ADD DUP1 SLOAD PUSH2 0x39D SWAP1 PUSH2 0xCE9 JUMP JUMPDEST DUP1 PUSH1 0x1F ADD PUSH1 0x20 DUP1 SWAP2 DIV MUL PUSH1 0x20 ADD PUSH1 0x40 MLOAD SWAP1 DUP2 ADD PUSH1 0x40 MSTORE DUP1 SWAP3 SWAP2 SWAP1 DUP2 DUP2 MSTORE PUSH1 0x20 ADD DUP3 DUP1 SLOAD PUSH2 0x3C9 SWAP1 PUSH2 0xCE9 JUMP JUMPDEST DUP1 ISZERO PUSH2 0x414 JUMPI DUP1 PUSH1 0x1F LT PUSH2 0x3EB JUMPI PUSH2 0x100 DUP1 DUP4 SLOAD DIV MUL DUP4 MSTORE SWAP2 PUSH1 0x20 ADD SWAP2 PUSH2 0x414 JUMP JUMPDEST DUP3 ADD SWAP2 SWAP1 PUSH0 MSTORE PUSH1 0x20 PUSH0 KECCAK256 SWAP1 JUMPDEST DUP2 SLOAD DUP2 MSTORE SWAP1 PUSH1 0x1 ADD SWAP1 PUSH1 0x20 ADD DUP1 DUP4 GT PUSH2 0x3F7 JUMPI DUP3 SWAP1 SUB PUSH1 0x1F AND DUP3 ADD SWAP2 JUMPDEST POP POP POP POP POP DUP2 MSTORE POP DUP5 DUP5 DUP2 MLOAD DUP2 LT PUSH2 0x42F JUMPI PUSH2 0x42E PUSH2 0xF85 JUMP JUMPDEST JUMPDEST PUSH1 0x20 MUL PUSH1 0x20 ADD ADD DUP2 SWAP1 MSTORE POP POP POP DUP1 DUP1 PUSH1 0x1 ADD SWAP2 POP POP PUSH2 0x290 JUMP JUMPDEST POP DUP1 SWAP2 POP POP SWAP1 JUMP JUMPDEST PUSH0 DUP2 DUP2 SLOAD DUP2 LT PUSH2 0x45F JUMPI PUSH0 DUP1 REVERT JUMPDEST SWAP1 PUSH0 MSTORE PUSH1 0x20 PUSH0 KECCAK256 SWAP1 PUSH1 0x4 MUL ADD PUSH0 SWAP2 POP SWAP1 POP DUP1 PUSH0 ADD DUP1 SLOAD PUSH2 0x47E SWAP1 PUSH2 0xCE9 JUMP JUMPDEST DUP1 PUSH1 0x1F ADD PUSH1 0x20 DUP1 SWAP2 DIV MUL PUSH1 0x20 ADD PUSH1 0x40 MLOAD SWAP1 DUP2 ADD PUSH1 0x40 MSTORE DUP1 SWAP3 SWAP2 SWAP1 DUP2 DUP2 MSTORE PUSH1 0x20 ADD DUP3 DUP1 SLOAD PUSH2 0x4AA SWAP1 PUSH2 0xCE9 JUMP JUMPDEST DUP1 ISZERO PUSH2 0x4F5 JUMPI DUP1 PUSH1 0x1F LT PUSH2 0x4CC JUMPI PUSH2 0x100 DUP1 DUP4 SLOAD DIV MUL DUP4 MSTORE SWAP2 PUSH1 0x20 ADD SWAP2 PUSH2 0x4F5 JUMP JUMPDEST DUP3 ADD SWAP2 SWAP1 PUSH0 MSTORE PUSH1 0x20 PUSH0 KECCAK256 SWAP1 JUMPDEST DUP2 SLOAD DUP2 MSTORE SWAP1 PUSH1 0x1 ADD SWAP1 PUSH1 0x20 ADD DUP1 DUP4 GT PUSH2 0x4D8 JUMPI DUP3 SWAP1 SUB PUSH1 0x1F AND DUP3 ADD SWAP2 JUMPDEST POP POP POP POP POP SWAP1 DUP1 PUSH1 0x1 ADD DUP1 SLOAD PUSH2 0x50A SWAP1 PUSH2 0xCE9 JUMP JUMPDEST DUP1 PUSH1 0x1F ADD PUSH1 0x20 DUP1 SWAP2 DIV MUL PUSH1 0x20 ADD PUSH1 0x40 MLOAD SWAP1 DUP2 ADD PUSH1 0x40 MSTORE DUP1 SWAP3 SWAP2 SWAP1 DUP2 DUP2 MSTORE PUSH1 0x20 ADD DUP3 DUP1 SLOAD PUSH2 0x536 SWAP1 PUSH2 0xCE9 JUMP JUMPDEST DUP1 ISZERO PUSH2 0x581 JUMPI DUP1 PUSH1 0x1F LT PUSH2 0x558 JUMPI PUSH2 0x100 DUP1 DUP4 SLOAD DIV MUL DUP4 MSTORE SWAP2 PUSH1 0x20 ADD SWAP2 PUSH2 0x581 JUMP JUMPDEST DUP3 ADD SWAP2 SWAP1 PUSH0 MSTORE PUSH1 0x20 PUSH0 KECCAK256 SWAP1 JUMPDEST DUP2 SLOAD DUP2 MSTORE SWAP1 PUSH1 0x1 ADD SWAP1 PUSH1 0x20 ADD DUP1 DUP4 GT PUSH2 0x564 JUMPI DUP3 SWAP1 SUB PUSH1 0x1F AND DUP3 ADD SWAP2 JUMPDEST POP POP POP POP POP SWAP1 POP DUP3 JUMP JUMPDEST PUSH0 DUP1 DUP4 DUP2 SLOAD DUP2 LT PUSH2 0x59F JUMPI PUSH2 0x59E PUSH2 0xF85 JUMP JUMPDEST JUMPDEST SWAP1 PUSH0 MSTORE PUSH1 0x20 PUSH0 KECCAK256 SWAP1 PUSH1 0x4 MUL ADD SWAP1 POP DUP1 PUSH1 0x3 ADD PUSH0 CALLER PUSH20 0xFFFFFFFFFFFFFFFFFFFFFFFFFFFFFFFFFFFFFFFF AND PUSH20 0xFFFFFFFFFFFFFFFFFFFFFFFFFFFFFFFFFFFFFFFF AND DUP2 MSTORE PUSH1 0x20 ADD SWAP1 DUP2 MSTORE PUSH1 0x20 ADD PUSH0 KECCAK256 PUSH0 SWAP1 SLOAD SWAP1 PUSH2 0x100 EXP SWAP1 DIV PUSH1 0xFF AND ISZERO PUSH2 0x639 JUMPI PUSH1 0x40 MLOAD PUSH32 0x8C379A000000000000000000000000000000000000000000000000000000000 DUP2 MSTORE PUSH1 0x4 ADD PUSH2 0x630 SWAP1 PUSH2 0x1070 JUMP JUMPDEST PUSH1 0x40 MLOAD DUP1 SWAP2 SUB SWAP1 REVERT JUMPDEST PUSH0 PUSH1 0x40 MLOAD DUP1 PUSH1 0x40 ADD PUSH1 0x40 MSTORE DUP1 CALLER PUSH20 0xFFFFFFFFFFFFFFFFFFFFFFFFFFFFFFFFFFFFFFFF AND DUP2 MSTORE PUSH1 0x20 ADD DUP5 ISZERO ISZERO DUP2 MSTORE POP SWAP1 POP DUP2 PUSH1 0x2 ADD DUP2 SWAP1 DUP1 PUSH1 0x1 DUP2 SLOAD ADD DUP1 DUP3 SSTORE DUP1 SWAP2 POP POP PUSH1 0x1 SWAP1 SUB SWAP1 PUSH0 MSTORE PUSH1 0x20 PUSH0 KECCAK256 ADD PUSH0 SWAP1 SWAP2 SWAP1 SWAP2 SWAP1 SWAP2 POP PUSH0 DUP3 ADD MLOAD DUP2 PUSH0 ADD PUSH0 PUSH2 0x100 EXP DUP2 SLOAD DUP2 PUSH20 0xFFFFFFFFFFFFFFFFFFFFFFFFFFFFFFFFFFFFFFFF MUL NOT AND SWAP1 DUP4 PUSH20 0xFFFFFFFFFFFFFFFFFFFFFFFFFFFFFFFFFFFFFFFF AND MUL OR SWAP1 SSTORE POP PUSH1 0x20 DUP3 ADD MLOAD DUP2 PUSH0 ADD PUSH1 0x14 PUSH2 0x100 EXP DUP2 SLOAD DUP2 PUSH1 0xFF MUL NOT AND SWAP1 DUP4 ISZERO ISZERO MUL OR SWAP1 SSTORE POP POP POP PUSH1 0x1 DUP3 PUSH1 0x3 ADD PUSH0 CALLER PUSH20 0xFFFFFFFFFFFFFFFFFFFFFFFFFFFFFFFFFFFFFFFF AND PUSH20 0xFFFFFFFFFFFFFFFFFFFFFFFFFFFFFFFFFFFFFFFF AND DUP2 MSTORE PUSH1 0x20 ADD SWAP1 DUP2 MSTORE PUSH1 0x20 ADD PUSH0 KECCAK256 PUSH0 PUSH2 0x100 EXP DUP2 SLOAD DUP2 PUSH1 0xFF MUL NOT AND SWAP1 DUP4 ISZERO ISZERO MUL OR SWAP1 SSTORE POP POP POP POP POP JUMP JUMPDEST PUSH0 DUP1 DUP1 SLOAD SWAP1 POP SWAP1 POP SWAP1 JUMP JUMPDEST PUSH1 0x40 MLOAD DUP1 PUSH1 0x80 ADD PUSH1 0x40 MSTORE DUP1 PUSH1 0x60 DUP2 MSTORE PUSH1 0x20 ADD PUSH0 DUP2 MSTORE PUSH1 0x20 ADD PUSH0 DUP2 MSTORE PUSH1 0x20 ADD PUSH1 0x60 DUP2 MSTORE POP SWAP1 JUMP JUMPDEST PUSH0 PUSH1 0x40 MLOAD SWAP1 POP SWAP1 JUMP JUMPDEST PUSH0 DUP1 REVERT JUMPDEST PUSH0 DUP1 REVERT JUMPDEST PUSH0 DUP1 REVERT JUMPDEST PUSH0 DUP1 REVERT JUMPDEST PUSH0 PUSH1 0x1F NOT PUSH1 0x1F DUP4 ADD AND SWAP1 POP SWAP2 SWAP1 POP JUMP JUMPDEST PUSH32 0x4E487B7100000000000000000000000000000000000000000000000000000000 PUSH0 MSTORE PUSH1 0x41 PUSH1 0x4 MSTORE PUSH1 0x24 PUSH0 REVERT JUMPDEST PUSH2 0x7E2 DUP3 PUSH2 0x79C JUMP JUMPDEST DUP2 ADD DUP2 DUP2 LT PUSH8 0xFFFFFFFFFFFFFFFF DUP3 GT OR ISZERO PUSH2 0x801 JUMPI PUSH2 0x800 PUSH2 0x7AC JUMP JUMPDEST JUMPDEST DUP1 PUSH1 0x40 MSTORE POP POP POP JUMP JUMPDEST PUSH0 PUSH2 0x813 PUSH2 0x783 JUMP JUMPDEST SWAP1 POP PUSH2 0x81F DUP3 DUP3 PUSH2 0x7D9 JUMP JUMPDEST SWAP2 SWAP1 POP JUMP JUMPDEST PUSH0 PUSH8 0xFFFFFFFFFFFFFFFF DUP3 GT ISZERO PUSH2 0x83E JUMPI PUSH2 0x83D PUSH2 0x7AC JUMP JUMPDEST JUMPDEST PUSH2 0x847 DUP3 PUSH2 0x79C JUMP JUMPDEST SWAP1 POP PUSH1 0x20 DUP2 ADD SWAP1 POP SWAP2 SWAP1 POP JUMP JUMPDEST DUP3 DUP2 DUP4 CALLDATACOPY PUSH0 DUP4 DUP4 ADD MSTORE POP POP POP JUMP JUMPDEST PUSH0 PUSH2 0x874 PUSH2 0x86F DUP5 PUSH2 0x824 JUMP JUMPDEST PUSH2 0x80A JUMP JUMPDEST SWAP1 POP DUP3 DUP2 MSTORE PUSH1 0x20 DUP2 ADD DUP5 DUP5 DUP5 ADD GT ISZERO PUSH2 0x890 JUMPI PUSH2 0x88F PUSH2 0x798 JUMP JUMPDEST JUMPDEST PUSH2 0x89B DUP5 DUP3 DUP6 PUSH2 0x854 JUMP JUMPDEST POP SWAP4 SWAP3 POP POP POP JUMP JUMPDEST PUSH0 DUP3 PUSH1 0x1F DUP4 ADD SLT PUSH2 0x8B7 JUMPI PUSH2 0x8B6 PUSH2 0x794 JUMP JUMPDEST JUMPDEST DUP2 CALLDATALOAD PUSH2 0x8C7 DUP5 DUP3 PUSH1 0x20 DUP7 ADD PUSH2 0x862 JUMP JUMPDEST SWAP2 POP POP SWAP3 SWAP2 POP POP JUMP JUMPDEST PUSH0 DUP1 PUSH1 0x40 DUP4 DUP6 SUB SLT ISZERO PUSH2 0x8E6 JUMPI PUSH2 0x8E5 PUSH2 0x78C JUMP JUMPDEST JUMPDEST PUSH0 DUP4 ADD CALLDATALOAD PUSH8 0xFFFFFFFFFFFFFFFF DUP2 GT ISZERO PUSH2 0x903 JUMPI PUSH2 0x902 PUSH2 0x790 JUMP JUMPDEST JUMPDEST PUSH2 0x90F DUP6 DUP3 DUP7 ADD PUSH2 0x8A3 JUMP JUMPDEST SWAP3 POP POP PUSH1 0x20 DUP4 ADD CALLDATALOAD PUSH8 0xFFFFFFFFFFFFFFFF DUP2 GT ISZERO PUSH2 0x930 JUMPI PUSH2 0x92F PUSH2 0x790 JUMP JUMPDEST JUMPDEST PUSH2 0x93C DUP6 DUP3 DUP7 ADD PUSH2 0x8A3 JUMP JUMPDEST SWAP2 POP POP SWAP3 POP SWAP3 SWAP1 POP JUMP JUMPDEST PUSH0 DUP2 SWAP1 POP SWAP2 SWAP1 POP JUMP JUMPDEST PUSH2 0x958 DUP2 PUSH2 0x946 JUMP JUMPDEST DUP2 EQ PUSH2 0x962 JUMPI PUSH0 DUP1 REVERT JUMPDEST POP JUMP JUMPDEST PUSH0 DUP2 CALLDATALOAD SWAP1 POP PUSH2 0x973 DUP2 PUSH2 0x94F JUMP JUMPDEST SWAP3 SWAP2 POP POP JUMP JUMPDEST PUSH0 PUSH1 0x20 DUP3 DUP5 SUB SLT ISZERO PUSH2 0x98E JUMPI PUSH2 0x98D PUSH2 0x78C JUMP JUMPDEST JUMPDEST PUSH0 PUSH2 0x99B DUP5 DUP3 DUP6 ADD PUSH2 0x965 JUMP JUMPDEST SWAP2 POP POP SWAP3 SWAP2 POP POP JUMP JUMPDEST PUSH2 0x9AD DUP2 PUSH2 0x946 JUMP JUMPDEST DUP3 MSTORE POP POP JUMP JUMPDEST PUSH0 PUSH1 0x60 DUP3 ADD SWAP1 POP PUSH2 0x9C6 PUSH0 DUP4 ADD DUP7 PUSH2 0x9A4 JUMP JUMPDEST PUSH2 0x9D3 PUSH1 0x20 DUP4 ADD DUP6 PUSH2 0x9A4 JUMP JUMPDEST PUSH2 0x9E0 PUSH1 0x40 DUP4 ADD DUP5 PUSH2 0x9A4 JUMP JUMPDEST SWAP5 SWAP4 POP POP POP POP JUMP JUMPDEST PUSH0 DUP2 MLOAD SWAP1 POP SWAP2 SWAP1 POP JUMP JUMPDEST PUSH0 DUP3 DUP3 MSTORE PUSH1 0x20 DUP3 ADD SWAP1 POP SWAP3 SWAP2 POP POP JUMP JUMPDEST PUSH0 DUP2 SWAP1 POP PUSH1 0x20 DUP3 ADD SWAP1 POP SWAP2 SWAP1 POP JUMP JUMPDEST PUSH0 DUP2 MLOAD SWAP1 POP SWAP2 SWAP1 POP JUMP JUMPDEST PUSH0 DUP3 DUP3 MSTORE PUSH1 0x20 DUP3 ADD SWAP1 POP SWAP3 SWAP2 POP POP JUMP JUMPDEST PUSH0 JUMPDEST DUP4 DUP2 LT ISZERO PUSH2 0xA48 JUMPI DUP1 DUP3 ADD MLOAD DUP2 DUP5 ADD MSTORE PUSH1 0x20 DUP2 ADD SWAP1 POP PUSH2 0xA2D JUMP JUMPDEST PUSH0 DUP5 DUP5 ADD MSTORE POP POP POP POP JUMP JUMPDEST PUSH0 PUSH2 0xA5D DUP3 PUSH2 0xA11 JUMP JUMPDEST PUSH2 0xA67 DUP2 DUP6 PUSH2 0xA1B JUMP JUMPDEST SWAP4 POP PUSH2 0xA77 DUP2 DUP6 PUSH1 0x20 DUP7 ADD PUSH2 0xA2B JUMP JUMPDEST PUSH2 0xA80 DUP2 PUSH2 0x79C JUMP JUMPDEST DUP5 ADD SWAP2 POP POP SWAP3 SWAP2 POP POP JUMP JUMPDEST PUSH2 0xA94 DUP2 PUSH2 0x946 JUMP JUMPDEST DUP3 MSTORE POP POP JUMP JUMPDEST PUSH0 PUSH1 0x80 DUP4 ADD PUSH0 DUP4 ADD MLOAD DUP5 DUP3 SUB PUSH0 DUP7 ADD MSTORE PUSH2 0xAB4 DUP3 DUP3 PUSH2 0xA53 JUMP JUMPDEST SWAP2 POP POP PUSH1 0x20 DUP4 ADD MLOAD PUSH2 0xAC9 PUSH1 0x20 DUP7 ADD DUP3 PUSH2 0xA8B JUMP JUMPDEST POP PUSH1 0x40 DUP4 ADD MLOAD PUSH2 0xADC PUSH1 0x40 DUP7 ADD DUP3 PUSH2 0xA8B JUMP JUMPDEST POP PUSH1 0x60 DUP4 ADD MLOAD DUP5 DUP3 SUB PUSH1 0x60 DUP7 ADD MSTORE PUSH2 0xAF4 DUP3 DUP3 PUSH2 0xA53 JUMP JUMPDEST SWAP2 POP POP DUP1 SWAP2 POP POP SWAP3 SWAP2 POP POP JUMP JUMPDEST PUSH0 PUSH2 0xB0C DUP4 DUP4 PUSH2 0xA9A JUMP JUMPDEST SWAP1 POP SWAP3 SWAP2 POP POP JUMP JUMPDEST PUSH0 PUSH1 0x20 DUP3 ADD SWAP1 POP SWAP2 SWAP1 POP JUMP JUMPDEST PUSH0 PUSH2 0xB2A DUP3 PUSH2 0x9E8 JUMP JUMPDEST PUSH2 0xB34 DUP2 DUP6 PUSH2 0x9F2 JUMP JUMPDEST SWAP4 POP DUP4 PUSH1 0x20 DUP3 MUL DUP6 ADD PUSH2 0xB46 DUP6 PUSH2 0xA02 JUMP JUMPDEST DUP1 PUSH0 JUMPDEST DUP6 DUP2 LT ISZERO PUSH2 0xB81 JUMPI DUP5 DUP5 SUB DUP10 MSTORE DUP2 MLOAD PUSH2 0xB62 DUP6 DUP3 PUSH2 0xB01 JUMP JUMPDEST SWAP5 POP PUSH2 0xB6D DUP4 PUSH2 0xB14 JUMP JUMPDEST SWAP3 POP PUSH1 0x20 DUP11 ADD SWAP10 POP POP PUSH1 0x1 DUP2 ADD SWAP1 POP PUSH2 0xB49 JUMP JUMPDEST POP DUP3 SWAP8 POP DUP8 SWAP6 POP POP POP POP POP POP SWAP3 SWAP2 POP POP JUMP JUMPDEST PUSH0 PUSH1 0x20 DUP3 ADD SWAP1 POP DUP2 DUP2 SUB PUSH0 DUP4 ADD MSTORE PUSH2 0xBAB DUP2 DUP5 PUSH2 0xB20 JUMP JUMPDEST SWAP1 POP SWAP3 SWAP2 POP POP JUMP JUMPDEST PUSH0 DUP3 DUP3 MSTORE PUSH1 0x20 DUP3 ADD SWAP1 POP SWAP3 SWAP2 POP POP JUMP JUMPDEST PUSH0 PUSH2 0xBCD DUP3 PUSH2 0xA11 JUMP JUMPDEST PUSH2 0xBD7 DUP2 DUP6 PUSH2 0xBB3 JUMP JUMPDEST SWAP4 POP PUSH2 0xBE7 DUP2 DUP6 PUSH1 0x20 DUP7 ADD PUSH2 0xA2B JUMP JUMPDEST PUSH2 0xBF0 DUP2 PUSH2 0x79C JUMP JUMPDEST DUP5 ADD SWAP2 POP POP SWAP3 SWAP2 POP POP JUMP JUMPDEST PUSH0 PUSH1 0x40 DUP3 ADD SWAP1 POP DUP2 DUP2 SUB PUSH0 DUP4 ADD MSTORE PUSH2 0xC13 DUP2 DUP6 PUSH2 0xBC3 JUMP JUMPDEST SWAP1 POP DUP2 DUP2 SUB PUSH1 0x20 DUP4 ADD MSTORE PUSH2 0xC27 DUP2 DUP5 PUSH2 0xBC3 JUMP JUMPDEST SWAP1 POP SWAP4 SWAP3 POP POP POP JUMP JUMPDEST PUSH0 DUP2 ISZERO ISZERO SWAP1 POP SWAP2 SWAP1 POP JUMP JUMPDEST PUSH2 0xC44 DUP2 PUSH2 0xC30 JUMP JUMPDEST DUP2 EQ PUSH2 0xC4E JUMPI PUSH0 DUP1 REVERT JUMPDEST POP JUMP JUMPDEST PUSH0 DUP2 CALLDATALOAD SWAP1 POP PUSH2 0xC5F DUP2 PUSH2 0xC3B JUMP JUMPDEST SWAP3 SWAP2 POP POP JUMP JUMPDEST PUSH0 DUP1 PUSH1 0x40 DUP4 DUP6 SUB SLT ISZERO PUSH2 0xC7B JUMPI PUSH2 0xC7A PUSH2 0x78C JUMP JUMPDEST JUMPDEST PUSH0 PUSH2 0xC88 DUP6 DUP3 DUP7 ADD PUSH2 0x965 JUMP JUMPDEST SWAP3 POP POP PUSH1 0x20 PUSH2 0xC99 DUP6 DUP3 DUP7 ADD PUSH2 0xC51 JUMP JUMPDEST SWAP2 POP POP SWAP3 POP SWAP3 SWAP1 POP JUMP JUMPDEST PUSH0 PUSH1 0x20 DUP3 ADD SWAP1 POP PUSH2 0xCB6 PUSH0 DUP4 ADD DUP5 PUSH2 0x9A4 JUMP JUMPDEST SWAP3 SWAP2 POP POP JUMP JUMPDEST PUSH32 0x4E487B7100000000000000000000000000000000000000000000000000000000 PUSH0 MSTORE PUSH1 0x22 PUSH1 0x4 MSTORE PUSH1 0x24 PUSH0 REVERT JUMPDEST PUSH0 PUSH1 0x2 DUP3 DIV SWAP1 POP PUSH1 0x1 DUP3 AND DUP1 PUSH2 0xD00 JUMPI PUSH1 0x7F DUP3 AND SWAP2 POP JUMPDEST PUSH1 0x20 DUP3 LT DUP2 SUB PUSH2 0xD13 JUMPI PUSH2 0xD12 PUSH2 0xCBC JUMP JUMPDEST JUMPDEST POP SWAP2 SWAP1 POP JUMP JUMPDEST PUSH0 DUP2 SWAP1 POP DUP2 PUSH0 MSTORE PUSH1 0x20 PUSH0 KECCAK256 SWAP1 POP SWAP2 SWAP1 POP JUMP JUMPDEST PUSH0 PUSH1 0x20 PUSH1 0x1F DUP4 ADD DIV SWAP1 POP SWAP2 SWAP1 POP JUMP JUMPDEST PUSH0 DUP3 DUP3 SHL SWAP1 POP SWAP3 SWAP2 POP POP JUMP JUMPDEST PUSH0 PUSH1 0x8 DUP4 MUL PUSH2 0xD75 PUSH32 0xFFFFFFFFFFFFFFFFFFFFFFFFFFFFFFFFFFFFFFFFFFFFFFFFFFFFFFFFFFFFFFFF DUP3 PUSH2 0xD3A JUMP JUMPDEST PUSH2 0xD7F DUP7 DUP4 PUSH2 0xD3A JUMP JUMPDEST SWAP6 POP DUP1 NOT DUP5 AND SWAP4 POP DUP1 DUP7 AND DUP5 OR SWAP3 POP POP POP SWAP4 SWAP3 POP POP POP JUMP JUMPDEST PUSH0 DUP2 SWAP1 POP SWAP2 SWAP1 POP JUMP JUMPDEST PUSH0 PUSH2 0xDBA PUSH2 0xDB5 PUSH2 0xDB0 DUP5 PUSH2 0x946 JUMP JUMPDEST PUSH2 0xD97 JUMP JUMPDEST PUSH2 0x946 JUMP JUMPDEST SWAP1 POP SWAP2 SWAP1 POP JUMP JUMPDEST PUSH0 DUP2 SWAP1 POP SWAP2 SWAP1 POP JUMP JUMPDEST PUSH2 0xDD3 DUP4 PUSH2 0xDA0 JUMP JUMPDEST PUSH2 0xDE7 PUSH2 0xDDF DUP3 PUSH2 0xDC1 JUMP JUMPDEST DUP5 DUP5 SLOAD PUSH2 0xD46 JUMP JUMPDEST DUP3 SSTORE POP POP POP POP JUMP JUMPDEST PUSH0 SWAP1 JUMP JUMPDEST PUSH2 0xDFB PUSH2 0xDEF JUMP JUMPDEST PUSH2 0xE06 DUP2 DUP5 DUP5 PUSH2 0xDCA JUMP JUMPDEST POP POP POP JUMP JUMPDEST JUMPDEST DUP2 DUP2 LT ISZERO PUSH2 0xE29 JUMPI PUSH2 0xE1E PUSH0 DUP3 PUSH2 0xDF3 JUMP JUMPDEST PUSH1 0x1 DUP2 ADD SWAP1 POP PUSH2 0xE0C JUMP JUMPDEST POP POP JUMP JUMPDEST PUSH1 0x1F DUP3 GT ISZERO PUSH2 0xE6E JUMPI PUSH2 0xE3F DUP2 PUSH2 0xD19 JUMP JUMPDEST PUSH2 0xE48 DUP5 PUSH2 0xD2B JUMP JUMPDEST DUP2 ADD PUSH1 0x20 DUP6 LT ISZERO PUSH2 0xE57 JUMPI DUP2 SWAP1 POP JUMPDEST PUSH2 0xE6B PUSH2 0xE63 DUP6 PUSH2 0xD2B JUMP JUMPDEST DUP4 ADD DUP3 PUSH2 0xE0B JUMP JUMPDEST POP POP JUMPDEST POP POP POP JUMP JUMPDEST PUSH0 DUP3 DUP3 SHR SWAP1 POP SWAP3 SWAP2 POP POP JUMP JUMPDEST PUSH0 PUSH2 0xE8E PUSH0 NOT DUP5 PUSH1 0x8 MUL PUSH2 0xE73 JUMP JUMPDEST NOT DUP1 DUP4 AND SWAP2 POP POP SWAP3 SWAP2 POP POP JUMP JUMPDEST PUSH0 PUSH2 0xEA6 DUP4 DUP4 PUSH2 0xE7F JUMP JUMPDEST SWAP2 POP DUP3 PUSH1 0x2 MUL DUP3 OR SWAP1 POP SWAP3 SWAP2 POP POP JUMP JUMPDEST PUSH2 0xEBF DUP3 PUSH2 0xA11 JUMP JUMPDEST PUSH8 0xFFFFFFFFFFFFFFFF DUP2 GT ISZERO PUSH2 0xED8 JUMPI PUSH2 0xED7 PUSH2 0x7AC JUMP JUMPDEST JUMPDEST PUSH2 0xEE2 DUP3 SLOAD PUSH2 0xCE9 JUMP JUMPDEST PUSH2 0xEED DUP3 DUP3 DUP6 PUSH2 0xE2D JUMP JUMPDEST PUSH0 PUSH1 0x20 SWAP1 POP PUSH1 0x1F DUP4 GT PUSH1 0x1 DUP2 EQ PUSH2 0xF1E JUMPI PUSH0 DUP5 ISZERO PUSH2 0xF0C JUMPI DUP3 DUP8 ADD MLOAD SWAP1 POP JUMPDEST PUSH2 0xF16 DUP6 DUP3 PUSH2 0xE9B JUMP JUMPDEST DUP7 SSTORE POP PUSH2 0xF7D JUMP JUMPDEST PUSH1 0x1F NOT DUP5 AND PUSH2 0xF2C DUP7 PUSH2 0xD19 JUMP JUMPDEST PUSH0 JUMPDEST DUP3 DUP2 LT ISZERO PUSH2 0xF53 JUMPI DUP5 DUP10 ADD MLOAD DUP3 SSTORE PUSH1 0x1 DUP3 ADD SWAP2 POP PUSH1 0x20 DUP6 ADD SWAP5 POP PUSH1 0x20 DUP2 ADD SWAP1 POP PUSH2 0xF2E JUMP JUMPDEST DUP7 DUP4 LT ISZERO PUSH2 0xF70 JUMPI DUP5 DUP10 ADD MLOAD PUSH2 0xF6C PUSH1 0x1F DUP10 AND DUP3 PUSH2 0xE7F JUMP JUMPDEST DUP4 SSTORE POP JUMPDEST PUSH1 0x1 PUSH1 0x2 DUP9 MUL ADD DUP9 SSTORE POP POP POP JUMPDEST POP POP POP POP POP POP JUMP JUMPDEST PUSH32 0x4E487B7100000000000000000000000000000000000000000000000000000000 PUSH0 MSTORE PUSH1 0x32 PUSH1 0x4 MSTORE PUSH1 0x24 PUSH0 REVERT JUMPDEST PUSH32 0x4E487B7100000000000000000000000000000000000000000000000000000000 PUSH0 MSTORE PUSH1 0x11 PUSH1 0x4 MSTORE PUSH1 0x24 PUSH0 REVERT JUMPDEST PUSH0 PUSH2 0xFE9 DUP3 PUSH2 0x946 JUMP JUMPDEST SWAP2 POP PUSH32 0xFFFFFFFFFFFFFFFFFFFFFFFFFFFFFFFFFFFFFFFFFFFFFFFFFFFFFFFFFFFFFFFF DUP3 SUB PUSH2 0x101B JUMPI PUSH2 0x101A PUSH2 0xFB2 JUMP JUMPDEST JUMPDEST PUSH1 0x1 DUP3 ADD SWAP1 POP SWAP2 SWAP1 POP JUMP JUMPDEST PUSH32 0x596F75206861766520616C726561647920766F7465642E000000000000000000 PUSH0 DUP3 ADD MSTORE POP JUMP JUMPDEST PUSH0 PUSH2 0x105A PUSH1 0x17 DUP4 PUSH2 0xBB3 JUMP JUMPDEST SWAP2 POP PUSH2 0x1065 DUP3 PUSH2 0x1026 JUMP JUMPDEST PUSH1 0x20 DUP3 ADD SWAP1 POP SWAP2 SWAP1 POP JUMP JUMPDEST PUSH0 PUSH1 0x20 DUP3 ADD SWAP1 POP DUP2 DUP2 SUB PUSH0 DUP4 ADD MSTORE PUSH2 0x1087 DUP2 PUSH2 0x104E JUMP JUMPDEST SWAP1 POP SWAP2 SWAP1 POP JUMP INVALID LOG2 PUSH5 0x6970667358 0x22 SLT KECCAK256 REVERT 0x22 0xAF 0xB1 0x26 0xA5 0x2E 0xDF MSTORE8 SWAP7 PUSH25 0xAE71DBBF1250113C975364CF30AE174B24DFC836D864736F6C PUSH4 0x43000818 STOP CALLER "
		},
		"gasEstimates": {
			"creation": {
				"codeDepositCost": "858400",
				"executionCost": "894",
				"totalCost": "859294"
			},
			"external": {
				"createPoll(string,string)": "infinite",
				"getAllPollResults()": "infinite",
				"getPollResults(uint256)": "infinite",
				"getPollsCount()": "2528",
				"polls(uint256)": "infinite",
				"vote(uint256,bool)": "102471"
			}
		},
		"methodIdentifiers": {
			"createPoll(string,string)": "04710b66",
			"getAllPollResults()": "573bfc3a",
			"getPollResults(uint256)": "33b4097b",
			"getPollsCount()": "e0995916",
			"polls(uint256)": "ac2f0074",
			"vote(uint256,bool)": "c9d27afe"
		}
	},
	"abi": [
		{
			"inputs": [
				{
					"internalType": "string",
					"name": "question",
					"type": "string"
				},
				{
					"internalType": "string",
					"name": "imgUrl",
					"type": "string"
				}
			],
			"name": "createPoll",
			"outputs": [],
			"stateMutability": "nonpayable",
			"type": "function"
		},
		{
			"inputs": [],
			"name": "getAllPollResults",
			"outputs": [
				{
					"components": [
						{
							"internalType": "string",
							"name": "name",
							"type": "string"
						},
						{
							"internalType": "uint256",
							"name": "yesCount",
							"type": "uint256"
						},
						{
							"internalType": "uint256",
							"name": "noCount",
							"type": "uint256"
						},
						{
							"internalType": "string",
							"name": "imgUrl",
							"type": "string"
						}
					],
					"internalType": "struct Voting.pollsListObj[]",
					"name": "",
					"type": "tuple[]"
				}
			],
			"stateMutability": "view",
			"type": "function"
		},
		{
			"inputs": [
				{
					"internalType": "uint256",
					"name": "pollIndex",
					"type": "uint256"
				}
			],
			"name": "getPollResults",
			"outputs": [
				{
					"internalType": "uint256",
					"name": "yes",
					"type": "uint256"
				},
				{
					"internalType": "uint256",
					"name": "no",
					"type": "uint256"
				},
				{
					"internalType": "uint256",
					"name": "CurrentIndex",
					"type": "uint256"
				}
			],
			"stateMutability": "view",
			"type": "function"
		},
		{
			"inputs": [],
			"name": "getPollsCount",
			"outputs": [
				{
					"internalType": "uint256",
					"name": "",
					"type": "uint256"
				}
			],
			"stateMutability": "view",
			"type": "function"
		},
		{
			"inputs": [
				{
					"internalType": "uint256",
					"name": "",
					"type": "uint256"
				}
			],
			"name": "polls",
			"outputs": [
				{
					"internalType": "string",
					"name": "question",
					"type": "string"
				},
				{
					"internalType": "string",
					"name": "imgUrl",
					"type": "string"
				}
			],
			"stateMutability": "view",
			"type": "function"
		},
		{
			"inputs": [
				{
					"internalType": "uint256",
					"name": "pollIndex",
					"type": "uint256"
				},
				{
					"internalType": "bool",
					"name": "choice",
					"type": "bool"
				}
			],
			"name": "vote",
			"outputs": [],
			"stateMutability": "nonpayable",
			"type": "function"
		}
	]
}